:100000000C9434000C943E000C943E000C943E0082
:100010000C943E000C943E000C943E000C943E0068
:100020000C943E000C943E000C943E000C943E0058
:100030000C943E000C943E000C943E000C943E0048
:100040000C943E000C943E000C943E000C943E0038
:100050000C943E000C943E000C943E000C943E0028
:100060000C943E000C943E0011241FBECFEFD8E04C
:10007000DEBFCDBF0E9440000C9457000C940000DE
:10008000CF93DF9300D0CDB7DEB71A82198280E01C
:1000900090E003C09A83898301968A309105D4F356
:1000A00080E090E00F900F90DF91CF910895F89449
:0200B000FFCF80
:00000001FF
